{
  "_format": "hh-sol-artifact-1",
  "contractName": "RealEstate",
  "sourceName": "contracts/Real_estate.sol",
  "abi": [
    {
      "anonymous": false,
      "inputs": [
        {
          "indexed": true,
          "internalType": "address",
          "name": "registrant",
          "type": "address"
        },
        {
          "indexed": false,
          "internalType": "uint256",
          "name": "document_no",
          "type": "uint256"
        },
        {
          "indexed": false,
          "internalType": "uint256",
          "name": "year",
          "type": "uint256"
        }
      ],
      "name": "NewRegistration",
      "type": "event"
    },
    {
      "anonymous": false,
      "inputs": [
        {
          "indexed": false,
          "internalType": "uint256",
          "name": "document_no",
          "type": "uint256"
        },
        {
          "indexed": false,
          "internalType": "address",
          "name": "right_holder",
          "type": "address"
        }
      ],
      "name": "PurchaseApproved",
      "type": "event"
    },
    {
      "anonymous": false,
      "inputs": [
        {
          "indexed": false,
          "internalType": "uint256",
          "name": "document_no",
          "type": "uint256"
        },
        {
          "indexed": false,
          "internalType": "address[]",
          "name": "new_right_holders",
          "type": "address[]"
        }
      ],
      "name": "PurchaseCompleted",
      "type": "event"
    },
    {
      "anonymous": false,
      "inputs": [
        {
          "indexed": false,
          "internalType": "uint256",
          "name": "document_no",
          "type": "uint256"
        },
        {
          "indexed": false,
          "internalType": "address",
          "name": "proposer",
          "type": "address"
        },
        {
          "indexed": false,
          "internalType": "address[]",
          "name": "claimants",
          "type": "address[]"
        }
      ],
      "name": "PurchaseProposalCreated",
      "type": "event"
    },
    {
      "inputs": [
        {
          "internalType": "address",
          "name": "",
          "type": "address"
        },
        {
          "internalType": "uint256",
          "name": "",
          "type": "uint256"
        }
      ],
      "name": "Lands",
      "outputs": [
        {
          "internalType": "uint256",
          "name": "price",
          "type": "uint256"
        },
        {
          "internalType": "uint256",
          "name": "document_no",
          "type": "uint256"
        },
        {
          "internalType": "uint256",
          "name": "yearOfRegistration",
          "type": "uint256"
        }
      ],
      "stateMutability": "view",
      "type": "function"
    },
    {
      "inputs": [
        {
          "internalType": "uint256",
          "name": "document_no",
          "type": "uint256"
        },
        {
          "internalType": "address[]",
          "name": "claimants",
          "type": "address[]"
        }
      ],
      "name": "Purchase",
      "outputs": [],
      "stateMutability": "nonpayable",
      "type": "function"
    },
    {
      "inputs": [
        {
          "internalType": "uint256",
          "name": "document_no",
          "type": "uint256"
        }
      ],
      "name": "approvePurchase",
      "outputs": [],
      "stateMutability": "nonpayable",
      "type": "function"
    },
    {
      "inputs": [
        {
          "internalType": "uint256",
          "name": "",
          "type": "uint256"
        }
      ],
      "name": "documentToOwner",
      "outputs": [
        {
          "internalType": "address",
          "name": "",
          "type": "address"
        }
      ],
      "stateMutability": "view",
      "type": "function"
    },
    {
      "inputs": [],
      "name": "getTotalLands",
      "outputs": [
        {
          "internalType": "uint256",
          "name": "",
          "type": "uint256"
        }
      ],
      "stateMutability": "view",
      "type": "function"
    },
    {
      "inputs": [
        {
          "internalType": "address",
          "name": "",
          "type": "address"
        },
        {
          "internalType": "uint256",
          "name": "",
          "type": "uint256"
        }
      ],
      "name": "ownerDocuments",
      "outputs": [
        {
          "internalType": "uint256",
          "name": "",
          "type": "uint256"
        }
      ],
      "stateMutability": "view",
      "type": "function"
    },
    {
      "inputs": [
        {
          "internalType": "uint256",
          "name": "",
          "type": "uint256"
        }
      ],
      "name": "purchaseProposals",
      "outputs": [
        {
          "internalType": "address",
          "name": "proposer",
          "type": "address"
        },
        {
          "internalType": "uint256",
          "name": "approvalCount",
          "type": "uint256"
        },
        {
          "internalType": "bool",
          "name": "active",
          "type": "bool"
        }
      ],
      "stateMutability": "view",
      "type": "function"
    },
    {
      "inputs": [
        {
          "internalType": "address[]",
          "name": "right_holders",
          "type": "address[]"
        },
        {
          "internalType": "uint256",
          "name": "price",
          "type": "uint256"
        },
        {
          "internalType": "uint256",
          "name": "document_no",
          "type": "uint256"
        }
      ],
      "name": "register",
      "outputs": [],
      "stateMutability": "nonpayable",
      "type": "function"
    },
    {
      "inputs": [],
      "name": "retrieve",
      "outputs": [
        {
          "components": [
            {
              "internalType": "address[]",
              "name": "right_holders",
              "type": "address[]"
            },
            {
              "internalType": "uint256",
              "name": "price",
              "type": "uint256"
            },
            {
              "internalType": "uint256",
              "name": "document_no",
              "type": "uint256"
            },
            {
              "internalType": "uint256",
              "name": "yearOfRegistration",
              "type": "uint256"
            }
          ],
          "internalType": "struct RealEstate.Entity[]",
          "name": "",
          "type": "tuple[]"
        }
      ],
      "stateMutability": "view",
      "type": "function"
    }
  ],
  "bytecode": "0x608060405234801561001057600080fd5b506128f2806100206000396000f3fe608060405234801561001057600080fd5b50600436106100935760003560e01c80637324f14d116100665780637324f14d14610148578063842e7dba14610164578063b215b7e814610182578063b37b53f7146101b4578063f76aca59146101d057610093565b8063076432b114610098578063199336e5146100c85780632e64cec1146100fa57806331d19f6514610118575b600080fd5b6100b260048036038101906100ad9190611bb4565b6101ec565b6040516100bf9190612277565b60405180910390f35b6100e260048036038101906100dd9190611b11565b61021f565b6040516100f193929190612506565b60405180910390f35b610102610256565b60405161010f91906122c9565b60405180910390f35b610132600480360381019061012d9190611b11565b61059a565b60405161013f919061242b565b60405180910390f35b610162600480360381019061015d9190611b4d565b6105cb565b005b61016c6108d3565b604051610179919061242b565b60405180910390f35b61019c60048036038101906101979190611bb4565b6109a1565b6040516101ab93929190612292565b60405180910390f35b6101ce60048036038101906101c99190611bb4565b6109f8565b005b6101ea60048036038101906101e59190611bdd565b610c7d565b005b60036020528060005260406000206000915054906101000a900473ffffffffffffffffffffffffffffffffffffffff1681565b6000602052816000526040600020602052806000526040600020600091509150508060010154908060020154908060030154905083565b60606000600160003373ffffffffffffffffffffffffffffffffffffffff1673ffffffffffffffffffffffffffffffffffffffff16815260200190815260200160002080549050116102dd576040517f08c379a00000000000000000000000000000000000000000000000000000000081526004016102d4906123cb565b60405180910390fd5b6000600160003373ffffffffffffffffffffffffffffffffffffffff1673ffffffffffffffffffffffffffffffffffffffff16815260200190815260200160002080549050905060008167ffffffffffffffff811115610366577f4e487b7100000000000000000000000000000000000000000000000000000000600052604160045260246000fd5b60405190808252806020026020018201604052801561039f57816020015b61038c6118bd565b8152602001906001900390816103845790505b50905060005b82811015610591576000600160003373ffffffffffffffffffffffffffffffffffffffff1673ffffffffffffffffffffffffffffffffffffffff1681526020019081526020016000208281548110610426577f4e487b7100000000000000000000000000000000000000000000000000000000600052603260045260246000fd5b906000526020600020015490506000803373ffffffffffffffffffffffffffffffffffffffff1673ffffffffffffffffffffffffffffffffffffffff16815260200190815260200160002060008281526020019081526020016000206040518060800160405290816000820180548060200260200160405190810160405280929190818152602001828054801561051257602002820191906000526020600020905b8160009054906101000a900473ffffffffffffffffffffffffffffffffffffffff1673ffffffffffffffffffffffffffffffffffffffff16815260200190600101908083116104c8575b505050505081526020016001820154815260200160028201548152602001600382015481525050838381518110610572577f4e487b7100000000000000000000000000000000000000000000000000000000600052603260045260246000fd5b602002602001018190525050808061058990612798565b9150506103a5565b50809250505090565b600160205281600052604060002081815481106105b657600080fd5b90600052602060002001600091509150505481565b338160008060008473ffffffffffffffffffffffffffffffffffffffff1673ffffffffffffffffffffffffffffffffffffffff16815260200190815260200160002060008381526020019081526020016000206002015414610662576040517f08c379a0000000000000000000000000000000000000000000000000000000008152600401610659906122eb565b60405180910390fd5b600061066d42611059565b90506000604051806080016040528088815260200187815260200186815260200183815250905060005b875181101561082757816000808a84815181106106dd577f4e487b7100000000000000000000000000000000000000000000000000000000600052603260045260246000fd5b602002602001015173ffffffffffffffffffffffffffffffffffffffff1673ffffffffffffffffffffffffffffffffffffffff1681526020019081526020016000206000888152602001908152602001600020600082015181600001908051906020019061074c9291906118e5565b50602082015181600101556040820151816002015560608201518160030155905050600160008983815181106107ab577f4e487b7100000000000000000000000000000000000000000000000000000000600052603260045260246000fd5b602002602001015173ffffffffffffffffffffffffffffffffffffffff1673ffffffffffffffffffffffffffffffffffffffff168152602001908152602001600020869080600181540180825580915050600190039060005260206000200160009091909190915055808061081f90612798565b915050610697565b50336003600087815260200190815260200160002060006101000a81548173ffffffffffffffffffffffffffffffffffffffff021916908373ffffffffffffffffffffffffffffffffffffffff1602179055503373ffffffffffffffffffffffffffffffffffffffff167fb02dedfcad4d57dcc454003f55aaaac56899785605503950fc448375fca9488886846040516108c29291906124dd565b60405180910390a250505050505050565b600080600160003373ffffffffffffffffffffffffffffffffffffffff1673ffffffffffffffffffffffffffffffffffffffff1681526020019081526020016000208054905011610959576040517f08c379a0000000000000000000000000000000000000000000000000000000008152600401610950906123cb565b60405180910390fd5b600160003373ffffffffffffffffffffffffffffffffffffffff1673ffffffffffffffffffffffffffffffffffffffff16815260200190815260200160002080549050905090565b60026020528060005260406000206000915090508060000160009054906101000a900473ffffffffffffffffffffffffffffffffffffffff16908060030154908060040160009054906101000a900460ff16905083565b8060006003600083815260200190815260200160002060009054906101000a900473ffffffffffffffffffffffffffffffffffffffff169050610a3c338284611084565b610a7b576040517f08c379a0000000000000000000000000000000000000000000000000000000008152600401610a729061236b565b60405180910390fd5b60006002600085815260200190815260200160002090508060040160009054906101000a900460ff16610ae3576040517f08c379a0000000000000000000000000000000000000000000000000000000008152600401610ada9061230b565b60405180910390fd5b8060020160003373ffffffffffffffffffffffffffffffffffffffff1673ffffffffffffffffffffffffffffffffffffffff16815260200190815260200160002060009054906101000a900460ff1615610b72576040517f08c379a0000000000000000000000000000000000000000000000000000000008152600401610b699061240b565b60405180910390fd5b60018160020160003373ffffffffffffffffffffffffffffffffffffffff1673ffffffffffffffffffffffffffffffffffffffff16815260200190815260200160002060006101000a81548160ff021916908315150217905550806003016000815480929190610be190612798565b91905055507fb66fc171a7d61ff7284f70eea0b8dc8bfc9976840d9b021ad04fd7dbf6c32ba28433604051610c17929190612446565b60405180910390a160006003600086815260200190815260200160002060009054906101000a900473ffffffffffffffffffffffffffffffffffffffff169050610c6181866111b0565b82600301541415610c7657610c7585611215565b5b5050505050565b8160006003600083815260200190815260200160002060009054906101000a900473ffffffffffffffffffffffffffffffffffffffff1690503373ffffffffffffffffffffffffffffffffffffffff168173ffffffffffffffffffffffffffffffffffffffff161415610d25576040517f08c379a0000000000000000000000000000000000000000000000000000000008152600401610d1c906123eb565b60405180910390fd5b610d30338284611084565b15610d70576040517f08c379a0000000000000000000000000000000000000000000000000000000008152600401610d679061232b565b60405180910390fd5b60006003600086815260200190815260200160002060009054906101000a900473ffffffffffffffffffffffffffffffffffffffff16905060008060008373ffffffffffffffffffffffffffffffffffffffff1673ffffffffffffffffffffffffffffffffffffffff16815260200190815260200160002060008781526020019081526020016000209050600081600201541415610e43576040517f08c379a0000000000000000000000000000000000000000000000000000000008152600401610e3a906123ab565b60405180910390fd5b60006002600088815260200190815260200160002090508060040160009054906101000a900460ff1615610eac576040517f08c379a0000000000000000000000000000000000000000000000000000000008152600401610ea39061238b565b60405180910390fd5b338160000160006101000a81548173ffffffffffffffffffffffffffffffffffffffff021916908373ffffffffffffffffffffffffffffffffffffffff16021790555085816001019080519060200190610f079291906118e5565b506000816003018190555060018160040160006101000a81548160ff02191690831515021790555060005b8260000180549050811015611014576000826002016000856000018481548110610f85577f4e487b7100000000000000000000000000000000000000000000000000000000600052603260045260246000fd5b9060005260206000200160009054906101000a900473ffffffffffffffffffffffffffffffffffffffff1673ffffffffffffffffffffffffffffffffffffffff1673ffffffffffffffffffffffffffffffffffffffff16815260200190815260200160002060006101000a81548160ff021916908315150217905550808061100c90612798565b915050610f32565b507fb3fbc9c3226a1849cc64f0651d651fbd351e3b8176e66d88ed526b6afeb7d4368733886040516110489392919061246f565b60405180910390a150505050505050565b6000806301e1853e9050808361106f91906126b1565b6107b261107c919061265b565b915050919050565b6000806000808573ffffffffffffffffffffffffffffffffffffffff1673ffffffffffffffffffffffffffffffffffffffff1681526020019081526020016000206000848152602001908152602001600020905060005b81600001805490508110156111a2578573ffffffffffffffffffffffffffffffffffffffff1682600001828154811061113d577f4e487b7100000000000000000000000000000000000000000000000000000000600052603260045260246000fd5b9060005260206000200160009054906101000a900473ffffffffffffffffffffffffffffffffffffffff1673ffffffffffffffffffffffffffffffffffffffff16141561118f576001925050506111a9565b808061119a90612798565b9150506110db565b5060009150505b9392505050565b6000806000808573ffffffffffffffffffffffffffffffffffffffff1673ffffffffffffffffffffffffffffffffffffffff16815260200190815260200160002060008481526020019081526020016000209050806000018054905091505092915050565b600060026000838152602001908152602001600020905060006003600084815260200190815260200160002060009054906101000a900473ffffffffffffffffffffffffffffffffffffffff16905060008060008373ffffffffffffffffffffffffffffffffffffffff1673ffffffffffffffffffffffffffffffffffffffff168152602001908152602001600020600085815260200190815260200160002090508060000180549050836003015414611304576040517f08c379a00000000000000000000000000000000000000000000000000000000081526004016112fb9061234b565b60405180910390fd5b60008160000180548060200260200160405190810160405280929190818152602001828054801561138a57602002820191906000526020600020905b8160009054906101000a900473ffffffffffffffffffffffffffffffffffffffff1673ffffffffffffffffffffffffffffffffffffffff1681526020019060010190808311611340575b5050505050905083600101826000019080546113a792919061196f565b5060008460000160009054906101000a900473ffffffffffffffffffffffffffffffffffffffff169050826000808373ffffffffffffffffffffffffffffffffffffffff1673ffffffffffffffffffffffffffffffffffffffff168152602001908152602001600020600088815260200190815260200160002060008201816000019080546114379291906119c1565b50600182015481600101556002820154816002015560038201548160030155905050600160008273ffffffffffffffffffffffffffffffffffffffff1673ffffffffffffffffffffffffffffffffffffffff168152602001908152602001600020869080600181540180825580915050600190039060005260206000200160009091909190915055806003600088815260200190815260200160002060006101000a81548173ffffffffffffffffffffffffffffffffffffffff021916908373ffffffffffffffffffffffffffffffffffffffff16021790555060005b825181101561163457600080848381518110611559577f4e487b7100000000000000000000000000000000000000000000000000000000600052603260045260246000fd5b602002602001015173ffffffffffffffffffffffffffffffffffffffff1673ffffffffffffffffffffffffffffffffffffffff1681526020019081526020016000206000888152602001908152602001600020600080820160006115bd9190611a13565b6001820160009055600282016000905560038201600090555050611621838281518110611613577f4e487b7100000000000000000000000000000000000000000000000000000000600052603260045260246000fd5b60200260200101518861171a565b808061162c90612798565b915050611514565b506000808573ffffffffffffffffffffffffffffffffffffffff1673ffffffffffffffffffffffffffffffffffffffff1681526020019081526020016000206000878152602001908152602001600020600080820160006116959190611a13565b60018201600090556002820160009055600382016000905550506116b9848761171a565b60008560040160006101000a81548160ff0219169083151502179055507f5e695dfd0e711cf7a3e84a40f465090ee02a50401c092f421a46674cc8f2e5db868660010160405161170a9291906124ad565b60405180910390a1505050505050565b6000600160008473ffffffffffffffffffffffffffffffffffffffff1673ffffffffffffffffffffffffffffffffffffffff168152602001908152602001600020905060005b81805490508110156118b757828282815481106117a6577f4e487b7100000000000000000000000000000000000000000000000000000000600052603260045260246000fd5b906000526020600020015414156118a45781600183805490506117c991906126e2565b81548110611800577f4e487b7100000000000000000000000000000000000000000000000000000000600052603260045260246000fd5b9060005260206000200154828281548110611844577f4e487b7100000000000000000000000000000000000000000000000000000000600052603260045260246000fd5b906000526020600020018190555081805480611889577f4e487b7100000000000000000000000000000000000000000000000000000000600052603160045260246000fd5b600190038181906000526020600020016000905590556118b7565b80806118af90612798565b915050611760565b50505050565b6040518060800160405280606081526020016000815260200160008152602001600081525090565b82805482825590600052602060002090810192821561195e579160200282015b8281111561195d5782518260006101000a81548173ffffffffffffffffffffffffffffffffffffffff021916908373ffffffffffffffffffffffffffffffffffffffff16021790555091602001919060010190611905565b5b50905061196b9190611a34565b5090565b8280548282559060005260206000209081019282156119b05760005260206000209182015b828111156119af578254825591600101919060010190611994565b5b5090506119bd9190611a34565b5090565b828054828255906000526020600020908101928215611a025760005260206000209182015b82811115611a015782548255916001019190600101906119e6565b5b509050611a0f9190611a34565b5090565b5080546000825590600052602060002090810190611a319190611a34565b50565b5b80821115611a4d576000816000905550600101611a35565b5090565b6000611a64611a5f8461256e565b61253d565b90508083825260208201905082856020860282011115611a8357600080fd5b60005b85811015611ab35781611a998882611abd565b845260208401935060208301925050600181019050611a86565b5050509392505050565b600081359050611acc8161288e565b92915050565b600082601f830112611ae357600080fd5b8135611af3848260208601611a51565b91505092915050565b600081359050611b0b816128a5565b92915050565b60008060408385031215611b2457600080fd5b6000611b3285828601611abd565b9250506020611b4385828601611afc565b9150509250929050565b600080600060608486031215611b6257600080fd5b600084013567ffffffffffffffff811115611b7c57600080fd5b611b8886828701611ad2565b9350506020611b9986828701611afc565b9250506040611baa86828701611afc565b9150509250925092565b600060208284031215611bc657600080fd5b6000611bd484828501611afc565b91505092915050565b60008060408385031215611bf057600080fd5b6000611bfe85828601611afc565b925050602083013567ffffffffffffffff811115611c1b57600080fd5b611c2785828601611ad2565b9150509250929050565b6000611c3d8383611c5d565b60208301905092915050565b6000611c5583836121f6565b905092915050565b611c6681612736565b82525050565b611c7581612736565b82525050565b6000611c86826125cf565b611c908185612617565b9350611c9b8361259a565b8060005b83811015611ccc578151611cb38882611c31565b9750611cbe836125f0565b925050600181019050611c9f565b5085935050505092915050565b6000611ce4826125cf565b611cee8185612628565b9350611cf98361259a565b8060005b83811015611d2a578151611d118882611c31565b9750611d1c836125f0565b925050600181019050611cfd565b5085935050505092915050565b6000611d42826125da565b611d4c8185612628565b9350611d57836125aa565b8060005b83811015611d8f57611d6c8261286e565b611d768882611c31565b9750611d81836125fd565b925050600181019050611d5b565b5085935050505092915050565b6000611da7826125e5565b611db18185612639565b935083602082028501611dc3856125bf565b8060005b85811015611dff5784840389528151611de08582611c49565b9450611deb8361260a565b925060208a01995050600181019050611dc7565b50829750879550505050505092915050565b611e1a81612748565b82525050565b6000611e2d60328361264a565b91507f536f7272792c207468697320646f63756d656e74206e756d626572206973206160008301527f6c726561647920726567697374657265642e00000000000000000000000000006020830152604082019050919050565b6000611e9360228361264a565b91507f4e6f206163746976652070757263686173652070726f706f73616c20666f756e60008301527f642e0000000000000000000000000000000000000000000000000000000000006020830152604082019050919050565b6000611ef960298361264a565b91507f4120726967687420686f6c6465722063616e6e6f742063616c6c20746869732060008301527f66756e6374696f6e2e00000000000000000000000000000000000000000000006020830152604082019050919050565b6000611f5f60248361264a565b91507f4e6f7420616c6c20726967687420686f6c64657273206861766520617070726f60008301527f7665642e000000000000000000000000000000000000000000000000000000006020830152604082019050919050565b6000611fc5602c8361264a565b91507f4f6e6c79206120726967687420686f6c6465722063616e20706572666f726d2060008301527f7468697320616374696f6e2e00000000000000000000000000000000000000006020830152604082019050919050565b600061202b60268361264a565b91507f412070757263686173652070726f706f73616c20697320616c7265616479206160008301527f63746976652e00000000000000000000000000000000000000000000000000006020830152604082019050919050565b6000612091600f8361264a565b91507f4c616e64206e6f7420666f756e642e00000000000000000000000000000000006000830152602082019050919050565b60006120d160258361264a565b91507f4e6f206c616e6473207265676973746572656420666f7220746869732061646460008301527f726573732e0000000000000000000000000000000000000000000000000000006020830152604082019050919050565b600061213760298361264a565b91507f5468652072656769737472616e742063616e6e6f742063616c6c20746869732060008301527f66756e6374696f6e2e00000000000000000000000000000000000000000000006020830152604082019050919050565b600061219d60288361264a565b91507f596f75206861766520616c726561647920617070726f7665642074686973207060008301527f757263686173652e0000000000000000000000000000000000000000000000006020830152604082019050919050565b600060808301600083015184820360008601526122138282611c7b565b91505060208301516122286020860182612259565b50604083015161223b6040860182612259565b50606083015161224e6060860182612259565b508091505092915050565b61226281612774565b82525050565b61227181612774565b82525050565b600060208201905061228c6000830184611c6c565b92915050565b60006060820190506122a76000830186611c6c565b6122b46020830185612268565b6122c16040830184611e11565b949350505050565b600060208201905081810360008301526122e38184611d9c565b905092915050565b6000602082019050818103600083015261230481611e20565b9050919050565b6000602082019050818103600083015261232481611e86565b9050919050565b6000602082019050818103600083015261234481611eec565b9050919050565b6000602082019050818103600083015261236481611f52565b9050919050565b6000602082019050818103600083015261238481611fb8565b9050919050565b600060208201905081810360008301526123a48161201e565b9050919050565b600060208201905081810360008301526123c481612084565b9050919050565b600060208201905081810360008301526123e4816120c4565b9050919050565b600060208201905081810360008301526124048161212a565b9050919050565b6000602082019050818103600083015261242481612190565b9050919050565b60006020820190506124406000830184612268565b92915050565b600060408201905061245b6000830185612268565b6124686020830184611c6c565b9392505050565b60006060820190506124846000830186612268565b6124916020830185611c6c565b81810360408301526124a38184611cd9565b9050949350505050565b60006040820190506124c26000830185612268565b81810360208301526124d48184611d37565b90509392505050565b60006040820190506124f26000830185612268565b6124ff6020830184612268565b9392505050565b600060608201905061251b6000830186612268565b6125286020830185612268565b6125356040830184612268565b949350505050565b6000604051905081810181811067ffffffffffffffff821117156125645761256361283f565b5b8060405250919050565b600067ffffffffffffffff8211156125895761258861283f565b5b602082029050602081019050919050565b6000819050602082019050919050565b60008190508160005260206000209050919050565b6000819050602082019050919050565b600081519050919050565b600081549050919050565b600081519050919050565b6000602082019050919050565b6000600182019050919050565b6000602082019050919050565b600082825260208201905092915050565b600082825260208201905092915050565b600082825260208201905092915050565b600082825260208201905092915050565b600061266682612774565b915061267183612774565b9250827fffffffffffffffffffffffffffffffffffffffffffffffffffffffffffffffff038211156126a6576126a56127e1565b5b828201905092915050565b60006126bc82612774565b91506126c783612774565b9250826126d7576126d6612810565b5b828204905092915050565b60006126ed82612774565b91506126f883612774565b92508282101561270b5761270a6127e1565b5b828203905092915050565b600073ffffffffffffffffffffffffffffffffffffffff82169050919050565b600061274182612754565b9050919050565b60008115159050919050565b600073ffffffffffffffffffffffffffffffffffffffff82169050919050565b6000819050919050565b600061279161278c83612881565b612716565b9050919050565b60006127a382612774565b91507fffffffffffffffffffffffffffffffffffffffffffffffffffffffffffffffff8214156127d6576127d56127e1565b5b600182019050919050565b7f4e487b7100000000000000000000000000000000000000000000000000000000600052601160045260246000fd5b7f4e487b7100000000000000000000000000000000000000000000000000000000600052601260045260246000fd5b7f4e487b7100000000000000000000000000000000000000000000000000000000600052604160045260246000fd5b600061287a825461277e565b9050919050565b60008160001c9050919050565b61289781612736565b81146128a257600080fd5b50565b6128ae81612774565b81146128b957600080fd5b5056fea2646970667358221220dba890169c40c1a7d1a99e9c1294492409e5b7bd9636792599965144bbcee75e64736f6c63430008000033",
  "linkReferences": {},
  "deployedLinkReferences": {}
}